{
  "_format": "hh-sol-artifact-1",
  "contractName": "MoltDuel",
  "sourceName": "contracts/MoltDuel.sol",
  "abi": [
    {
      "inputs": [
        {
          "internalType": "address",
          "name": "_tokenAddress",
          "type": "address"
        }
      ],
      "stateMutability": "nonpayable",
      "type": "constructor"
    },
    {
      "inputs": [
        {
          "internalType": "address",
          "name": "owner",
          "type": "address"
        }
      ],
      "name": "OwnableInvalidOwner",
      "type": "error"
    },
    {
      "inputs": [
        {
          "internalType": "address",
          "name": "account",
          "type": "address"
        }
      ],
      "name": "OwnableUnauthorizedAccount",
      "type": "error"
    },
    {
      "inputs": [],
      "name": "ReentrancyGuardReentrantCall",
      "type": "error"
    },
    {
      "anonymous": false,
      "inputs": [
        {
          "indexed": true,
          "internalType": "address",
          "name": "player",
          "type": "address"
        },
        {
          "indexed": false,
          "internalType": "enum MoltDuel.Choice",
          "name": "playerChoice",
          "type": "uint8"
        },
        {
          "indexed": false,
          "internalType": "enum MoltDuel.Choice",
          "name": "aiChoice",
          "type": "uint8"
        },
        {
          "indexed": false,
          "internalType": "enum MoltDuel.Result",
          "name": "result",
          "type": "uint8"
        },
        {
          "indexed": false,
          "internalType": "uint256",
          "name": "amount",
          "type": "uint256"
        },
        {
          "indexed": false,
          "internalType": "uint256",
          "name": "payout",
          "type": "uint256"
        }
      ],
      "name": "DuelPlayed",
      "type": "event"
    },
    {
      "anonymous": false,
      "inputs": [
        {
          "indexed": true,
          "internalType": "address",
          "name": "sender",
          "type": "address"
        },
        {
          "indexed": false,
          "internalType": "uint256",
          "name": "amount",
          "type": "uint256"
        }
      ],
      "name": "FundsDeposited",
      "type": "event"
    },
    {
      "anonymous": false,
      "inputs": [
        {
          "indexed": true,
          "internalType": "address",
          "name": "owner",
          "type": "address"
        },
        {
          "indexed": false,
          "internalType": "uint256",
          "name": "amount",
          "type": "uint256"
        }
      ],
      "name": "FundsWithdrawn",
      "type": "event"
    },
    {
      "anonymous": false,
      "inputs": [
        {
          "indexed": true,
          "internalType": "address",
          "name": "previousOwner",
          "type": "address"
        },
        {
          "indexed": true,
          "internalType": "address",
          "name": "newOwner",
          "type": "address"
        }
      ],
      "name": "OwnershipTransferred",
      "type": "event"
    },
    {
      "inputs": [
        {
          "internalType": "uint256",
          "name": "amount",
          "type": "uint256"
        }
      ],
      "name": "depositFunds",
      "outputs": [],
      "stateMutability": "nonpayable",
      "type": "function"
    },
    {
      "inputs": [],
      "name": "duelToken",
      "outputs": [
        {
          "internalType": "contract IERC20",
          "name": "",
          "type": "address"
        }
      ],
      "stateMutability": "view",
      "type": "function"
    },
    {
      "inputs": [],
      "name": "owner",
      "outputs": [
        {
          "internalType": "address",
          "name": "",
          "type": "address"
        }
      ],
      "stateMutability": "view",
      "type": "function"
    },
    {
      "inputs": [
        {
          "internalType": "enum MoltDuel.Choice",
          "name": "playerChoice",
          "type": "uint8"
        },
        {
          "internalType": "uint256",
          "name": "amount",
          "type": "uint256"
        }
      ],
      "name": "play",
      "outputs": [],
      "stateMutability": "nonpayable",
      "type": "function"
    },
    {
      "inputs": [],
      "name": "renounceOwnership",
      "outputs": [],
      "stateMutability": "nonpayable",
      "type": "function"
    },
    {
      "inputs": [
        {
          "internalType": "address",
          "name": "newOwner",
          "type": "address"
        }
      ],
      "name": "transferOwnership",
      "outputs": [],
      "stateMutability": "nonpayable",
      "type": "function"
    },
    {
      "inputs": [
        {
          "internalType": "uint256",
          "name": "amount",
          "type": "uint256"
        }
      ],
      "name": "withdrawTokens",
      "outputs": [],
      "stateMutability": "nonpayable",
      "type": "function"
    }
  ],
  "bytecode": "0x60806040523480156200001157600080fd5b50604051620019a8380380620019a883398181016040528101906200003791906200023c565b33600073ffffffffffffffffffffffffffffffffffffffff168173ffffffffffffffffffffffffffffffffffffffff1603620000ad5760006040517f1e4fbdf7000000000000000000000000000000000000000000000000000000008152600401620000a491906200027f565b60405180910390fd5b620000be816200010e60201b60201c565b506001808190555080600260006101000a81548173ffffffffffffffffffffffffffffffffffffffff021916908373ffffffffffffffffffffffffffffffffffffffff160217905550506200029c565b60008060009054906101000a900473ffffffffffffffffffffffffffffffffffffffff169050816000806101000a81548173ffffffffffffffffffffffffffffffffffffffff021916908373ffffffffffffffffffffffffffffffffffffffff1602179055508173ffffffffffffffffffffffffffffffffffffffff168173ffffffffffffffffffffffffffffffffffffffff167f8be0079c531659141344cd1fd0a4f28419497f9722a3daafe3b4186f6b6457e060405160405180910390a35050565b600080fd5b600073ffffffffffffffffffffffffffffffffffffffff82169050919050565b60006200020482620001d7565b9050919050565b6200021681620001f7565b81146200022257600080fd5b50565b60008151905062000236816200020b565b92915050565b600060208284031215620002555762000254620001d2565b5b6000620002658482850162000225565b91505092915050565b6200027981620001f7565b82525050565b60006020820190506200029660008301846200026e565b92915050565b6116fc80620002ac6000396000f3fe608060405234801561001057600080fd5b506004361061007d5760003560e01c8063715018a61161005b578063715018a6146100d65780638da5cb5b146100e0578063d7203760146100fe578063f2fde38b1461011c5761007d565b8063315a095d146100825780633b76594d1461009e578063665da338146100ba575b600080fd5b61009c60048036038101906100979190610d69565b610138565b005b6100b860048036038101906100b39190610d69565b610270565b005b6100d460048036038101906100cf9190610dbb565b6103aa565b005b6100de610aa3565b005b6100e8610ab7565b6040516100f59190610e3c565b60405180910390f35b610106610ae0565b6040516101139190610eb6565b60405180910390f35b61013660048036038101906101319190610efd565b610b06565b005b610140610b8c565b600260009054906101000a900473ffffffffffffffffffffffffffffffffffffffff1673ffffffffffffffffffffffffffffffffffffffff1663a9059cbb33836040518363ffffffff1660e01b815260040161019d929190610f39565b6020604051808303816000875af11580156101bc573d6000803e3d6000fd5b505050506040513d601f19601f820116820180604052508101906101e09190610f9a565b61021f576040517f08c379a000000000000000000000000000000000000000000000000000000000815260040161021690611024565b60405180910390fd5b3373ffffffffffffffffffffffffffffffffffffffff167feaff4b37086828766ad3268786972c0cd24259d4c87a80f9d3963a3c3d999b0d826040516102659190611044565b60405180910390a250565b610278610b8c565b600260009054906101000a900473ffffffffffffffffffffffffffffffffffffffff1673ffffffffffffffffffffffffffffffffffffffff166323b872dd3330846040518463ffffffff1660e01b81526004016102d79392919061105f565b6020604051808303816000875af11580156102f6573d6000803e3d6000fd5b505050506040513d601f19601f8201168201806040525081019061031a9190610f9a565b610359576040517f08c379a0000000000000000000000000000000000000000000000000000000008152600401610350906110e2565b60405180910390fd5b3373ffffffffffffffffffffffffffffffffffffffff167f543ba50a5eec5e6178218e364b1d0f396157b3c8fa278522c2cb7fd99407d4748260405161039f9190611044565b60405180910390a250565b6103b2610c13565b600081116103f5576040517f08c379a00000000000000000000000000000000000000000000000000000000081526004016103ec9061114e565b60405180910390fd5b80600260009054906101000a900473ffffffffffffffffffffffffffffffffffffffff1673ffffffffffffffffffffffffffffffffffffffff166370a08231336040518263ffffffff1660e01b81526004016104519190610e3c565b602060405180830381865afa15801561046e573d6000803e3d6000fd5b505050506040513d601f19601f820116820180604052508101906104929190611183565b10156104d3576040517f08c379a00000000000000000000000000000000000000000000000000000000081526004016104ca906111fc565b60405180910390fd5b80600260009054906101000a900473ffffffffffffffffffffffffffffffffffffffff1673ffffffffffffffffffffffffffffffffffffffff1663dd62ed3e33306040518363ffffffff1660e01b815260040161053192919061121c565b602060405180830381865afa15801561054e573d6000803e3d6000fd5b505050506040513d601f19601f820116820180604052508101906105729190611183565b10156105b3576040517f08c379a00000000000000000000000000000000000000000000000000000000081526004016105aa90611291565b60405180910390fd5b600260009054906101000a900473ffffffffffffffffffffffffffffffffffffffff1673ffffffffffffffffffffffffffffffffffffffff166323b872dd3330846040518463ffffffff1660e01b81526004016106129392919061105f565b6020604051808303816000875af1158015610631573d6000803e3d6000fd5b505050506040513d601f19601f820116820180604052508101906106559190610f9a565b610694576040517f08c379a000000000000000000000000000000000000000000000000000000000815260040161068b906112fd565b60405180910390fd5b6000600342336003546040516020016106af93929190611386565b6040516020818303038152906040528051906020012060001c6106d291906113f2565b60028111156106e4576106e3611423565b5b9050600360008154809291906106f990611481565b91905055506000806000905082600281111561071857610717611423565b5b85600281111561072b5761072a611423565b5b0361073c5760029150839050610877565b600060028111156107505761074f611423565b5b85600281111561076357610762611423565b5b148015610793575060028081111561077e5761077d611423565b5b83600281111561079157610790611423565b5b145b806107f25750600160028111156107ad576107ac611423565b5b8560028111156107c0576107bf611423565b5b1480156107f15750600060028111156107dc576107db611423565b5b8360028111156107ef576107ee611423565b5b145b5b80610850575060028081111561080b5761080a611423565b5b85600281111561081e5761081d611423565b5b14801561084f57506001600281111561083a57610839611423565b5b83600281111561084d5761084c611423565b5b145b5b1561086d576000915060028461086691906114c9565b9050610876565b60019150600090505b5b6000811115610a3e5780600260009054906101000a900473ffffffffffffffffffffffffffffffffffffffff1673ffffffffffffffffffffffffffffffffffffffff166370a08231306040518263ffffffff1660e01b81526004016108dc9190610e3c565b602060405180830381865afa1580156108f9573d6000803e3d6000fd5b505050506040513d601f19601f8201168201806040525081019061091d9190611183565b101561095e576040517f08c379a000000000000000000000000000000000000000000000000000000000815260040161095590611557565b60405180910390fd5b600260009054906101000a900473ffffffffffffffffffffffffffffffffffffffff1673ffffffffffffffffffffffffffffffffffffffff1663a9059cbb33836040518363ffffffff1660e01b81526004016109bb929190610f39565b6020604051808303816000875af11580156109da573d6000803e3d6000fd5b505050506040513d601f19601f820116820180604052508101906109fe9190610f9a565b610a3d576040517f08c379a0000000000000000000000000000000000000000000000000000000008152600401610a34906115c3565b60405180910390fd5b5b3373ffffffffffffffffffffffffffffffffffffffff167fc53365f94264f283606127217ca87656271043f338a9e5a2afcdaf13c2f760c78685858886604051610a8c959493929190611673565b60405180910390a2505050610a9f610c59565b5050565b610aab610b8c565b610ab56000610c62565b565b60008060009054906101000a900473ffffffffffffffffffffffffffffffffffffffff16905090565b600260009054906101000a900473ffffffffffffffffffffffffffffffffffffffff1681565b610b0e610b8c565b600073ffffffffffffffffffffffffffffffffffffffff168173ffffffffffffffffffffffffffffffffffffffff1603610b805760006040517f1e4fbdf7000000000000000000000000000000000000000000000000000000008152600401610b779190610e3c565b60405180910390fd5b610b8981610c62565b50565b610b94610d26565b73ffffffffffffffffffffffffffffffffffffffff16610bb2610ab7565b73ffffffffffffffffffffffffffffffffffffffff1614610c1157610bd5610d26565b6040517f118cdaa7000000000000000000000000000000000000000000000000000000008152600401610c089190610e3c565b60405180910390fd5b565b600260015403610c4f576040517f3ee5aeb500000000000000000000000000000000000000000000000000000000815260040160405180910390fd5b6002600181905550565b60018081905550565b60008060009054906101000a900473ffffffffffffffffffffffffffffffffffffffff169050816000806101000a81548173ffffffffffffffffffffffffffffffffffffffff021916908373ffffffffffffffffffffffffffffffffffffffff1602179055508173ffffffffffffffffffffffffffffffffffffffff168173ffffffffffffffffffffffffffffffffffffffff167f8be0079c531659141344cd1fd0a4f28419497f9722a3daafe3b4186f6b6457e060405160405180910390a35050565b600033905090565b600080fd5b6000819050919050565b610d4681610d33565b8114610d5157600080fd5b50565b600081359050610d6381610d3d565b92915050565b600060208284031215610d7f57610d7e610d2e565b5b6000610d8d84828501610d54565b91505092915050565b60038110610da357600080fd5b50565b600081359050610db581610d96565b92915050565b60008060408385031215610dd257610dd1610d2e565b5b6000610de085828601610da6565b9250506020610df185828601610d54565b9150509250929050565b600073ffffffffffffffffffffffffffffffffffffffff82169050919050565b6000610e2682610dfb565b9050919050565b610e3681610e1b565b82525050565b6000602082019050610e516000830184610e2d565b92915050565b6000819050919050565b6000610e7c610e77610e7284610dfb565b610e57565b610dfb565b9050919050565b6000610e8e82610e61565b9050919050565b6000610ea082610e83565b9050919050565b610eb081610e95565b82525050565b6000602082019050610ecb6000830184610ea7565b92915050565b610eda81610e1b565b8114610ee557600080fd5b50565b600081359050610ef781610ed1565b92915050565b600060208284031215610f1357610f12610d2e565b5b6000610f2184828501610ee8565b91505092915050565b610f3381610d33565b82525050565b6000604082019050610f4e6000830185610e2d565b610f5b6020830184610f2a565b9392505050565b60008115159050919050565b610f7781610f62565b8114610f8257600080fd5b50565b600081519050610f9481610f6e565b92915050565b600060208284031215610fb057610faf610d2e565b5b6000610fbe84828501610f85565b91505092915050565b600082825260208201905092915050565b7f5769746864726177206661696c65640000000000000000000000000000000000600082015250565b600061100e600f83610fc7565b915061101982610fd8565b602082019050919050565b6000602082019050818103600083015261103d81611001565b9050919050565b60006020820190506110596000830184610f2a565b92915050565b60006060820190506110746000830186610e2d565b6110816020830185610e2d565b61108e6040830184610f2a565b949350505050565b7f4465706f736974206661696c6564000000000000000000000000000000000000600082015250565b60006110cc600e83610fc7565b91506110d782611096565b602082019050919050565b600060208201905081810360008301526110fb816110bf565b9050919050565b7f416d6f756e74206d7573742062652067726561746572207468616e2030000000600082015250565b6000611138601d83610fc7565b915061114382611102565b602082019050919050565b600060208201905081810360008301526111678161112b565b9050919050565b60008151905061117d81610d3d565b92915050565b60006020828403121561119957611198610d2e565b5b60006111a78482850161116e565b91505092915050565b7f496e73756666696369656e742062616c616e6365000000000000000000000000600082015250565b60006111e6601483610fc7565b91506111f1826111b0565b602082019050919050565b60006020820190508181036000830152611215816111d9565b9050919050565b60006040820190506112316000830185610e2d565b61123e6020830184610e2d565b9392505050565b7f496e73756666696369656e7420616c6c6f77616e636500000000000000000000600082015250565b600061127b601683610fc7565b915061128682611245565b602082019050919050565b600060208201905081810360008301526112aa8161126e565b9050919050565b7f5472616e73666572206661696c65640000000000000000000000000000000000600082015250565b60006112e7600f83610fc7565b91506112f2826112b1565b602082019050919050565b60006020820190508181036000830152611316816112da565b9050919050565b6000819050919050565b61133861133382610d33565b61131d565b82525050565b60008160601b9050919050565b60006113568261133e565b9050919050565b60006113688261134b565b9050919050565b61138061137b82610e1b565b61135d565b82525050565b60006113928286611327565b6020820191506113a2828561136f565b6014820191506113b28284611327565b602082019150819050949350505050565b7f4e487b7100000000000000000000000000000000000000000000000000000000600052601260045260246000fd5b60006113fd82610d33565b915061140883610d33565b925082611418576114176113c3565b5b828206905092915050565b7f4e487b7100000000000000000000000000000000000000000000000000000000600052602160045260246000fd5b7f4e487b7100000000000000000000000000000000000000000000000000000000600052601160045260246000fd5b600061148c82610d33565b91507fffffffffffffffffffffffffffffffffffffffffffffffffffffffffffffffff82036114be576114bd611452565b5b600182019050919050565b60006114d482610d33565b91506114df83610d33565b92508282026114ed81610d33565b9150828204841483151761150457611503611452565b5b5092915050565b7f436f6e74726163742068617320696e73756666696369656e742066756e647300600082015250565b6000611541601f83610fc7565b915061154c8261150b565b602082019050919050565b6000602082019050818103600083015261157081611534565b9050919050565b7f5061796f7574206661696c656400000000000000000000000000000000000000600082015250565b60006115ad600d83610fc7565b91506115b882611577565b602082019050919050565b600060208201905081810360008301526115dc816115a0565b9050919050565b600381106115f4576115f3611423565b5b50565b6000819050611605826115e3565b919050565b6000611615826115f7565b9050919050565b6116258161160a565b82525050565b6003811061163c5761163b611423565b5b50565b600081905061164d8261162b565b919050565b600061165d8261163f565b9050919050565b61166d81611652565b82525050565b600060a082019050611688600083018861161c565b611695602083018761161c565b6116a26040830186611664565b6116af6060830185610f2a565b6116bc6080830184610f2a565b969550505050505056fea26469706673582212203c0588bc9ab8490484c09a936b013484a74f2a898fd15b62759307b4fd281a3a64736f6c63430008140033",
  "linkReferences": {},
  "deployedLinkReferences": {}
}